:100000000C942A000C94A1060C94A1060C94A10651
:100010000C94A1060C94A1060C94A1060C94A106C4
:100020000C94A1060C94A1060C94A1060C94A106B4
:100030000C94A1060C94A1060C94A1060C94A106A4
:100040000C94A1060C94A1060C94A1060C94A10694
:100050000C94A10611241FBECFE5D4E0DEBFCDBFB6
:0C0060000E9436000C943400F894FFCF8E
:10006C00CF93DF93CDB7DEB7CC5BD1090FB6F89445
:10007C00DEBF0FBECDBF1DA28CE38EA386E48FA383
:10008C008DE888A781EB89A782E68AA78CE38BA7EA
:10009C001CA61DA61DA681E28EA781E48FA78FEF5B
:1000AC0088AB8FEF89AB81E08AAB81E08BAB1CAA6C
:1000BC001DAA1DAA83E68EAB87EE8FAB8DE888AFA9
:1000CC0089E989AF81EF8AAF81E68BAF1CAE1DAE9B
:1000DC001DAE82E88EAF81E88FAF21E8CE01805C47
:1000EC009F4FFC012083CE018F5B9F4F21E9FC01C8
:1000FC002083CE018E5B9F4F29EAFC012083CE0129
:10010C008D5B9F4F26ECFC012083CE018C5B9F4FB7
:10011C00FC011082CE018B5B9F4FFC011082CE0143
:10012C008B5B9F4FFC011082CE018A5B9F4F28EFA7
:10013C00FC012083CE01895B9F4F28E0FC012083CA
:10014C00CE01885B9F4F28E0FC012083CE01875BAA
:10015C009F4F28E0FC012083CE01865B9F4F2FEF41
:10016C00FC012083CE01855B9F4FFC011082CE01E8
:10017C00845B9F4FFC011082CE01835B9F4FFC017F
:10018C001082CE01835B9F4FFC011082CE01825BFB
:10019C009F4F22EFFC012083CE01815B9F4F21E911
:1001AC00FC012083CE01805B9F4F21E9FC01208361
:1001BC00CE018F5A9F4F21E9FC012083CE018E5A2C
:1001CC009F4F21E9FC012083CE018D5A9F4F2EE8D1
:1001DC00FC012083CE018C5A9F4FFC011082CE0172
:1001EC008B5A9F4FFC011082CE018B5A9F4FFC0102
:1001FC001082CE018A5A9F4F2EE3FC012083CE0140
:10020C00895A9F4F29E4FC012083CE01885A9F4FC5
:10021C0021E9FC012083CE01875A9F4F21E9FC0183
:10022C002083CE01865A9F4F29E8FC012083CE0102
:10023C00855A9F4F26E0FC012083CE01845A9F4FA4
:10024C00FC011082CE01835A9F4FFC011082CE011B
:10025C00835A9F4FFC011082CE01825A9F4F21E896
:10026C00FC012083CE01815A9F4F23E8FC0120839F
:10027C00CE01805A9F4F26E8FC012083CE018F5976
:10028C009F4F2CE8FC012083CE018E599F4F28E90B
:10029C00FC012083CE018D599F4F20EFFC01208360
:1002AC00CE018C599F4FFC011082CE018B599F4F70
:1002BC00FC011082CE018B599F4FFC011082CE01A4
:1002CC008A599F4F2EE6FC012083CE0189599F4FFE
:1002DC0021E9FC012083CE0188599F4F21E9FC01C3
:1002EC002083CE0187599F4F21E9FC012083CE0149
:1002FC0086599F4F21E9FC012083CE0185599F4FE0
:10030C002EE6FC012083CE0184599F4FFC01108204
:10031C00CE0183599F4FFC011082CE0183599F4F10
:10032C00FC011082CE0182599F4F22E7FC012083F1
:10033C00CE0181599F4F29E8FC012083CE018059C1
:10034C009F4F29E8FC012083CE018F589F4F29E84D
:10035C00FC012083CE018E589F4F29E8FC0120839D
:10036C00CE018D589F4F2EE7FC012083CE018C5877
:10037C009F4FFC011082CE018B589F4FFC011082C5
:10038C00CE018B589F4FFC011082CE018A589F4F93
:10039C002FE0FC012083CE0189589F4F20E7FC0100
:1003AC002083CE0188589F4F20E9FC012083CE0189
:1003BC0087589F4F20E9FC012083CE0186589F4F20
:1003CC0020E7FC012083CE0185589F4F2FE0FC01D4
:1003DC002083CE0184589F4FFC011082CE0183589C
:1003EC009F4FFC011082CE0183589F4FFC0110825D
:1003FC00CE0182589F4F2FEFFC012083CE018158F4
:10040C009F4F21E9FC012083CE0180589F4F21E9A9
:10041C00FC012083CE018F579F4F21E9FC012083E3
:10042C00CE018E579F4F21E9FC012083CE018D57C1
:10043C009F4F2EE6FC012083CE018C579F4FFC0171
:10044C001082CE018B579F4FFC011082CE018B572F
:10045C009F4FFC011082CE018A579F4F2EE7FC0163
:10046C002083CE0189579F4F21E8FC012083CE01C8
:10047C0088579F4F21E8FC012083CE0187579F4F5F
:10048C0021E8FC012083CE0186579F4F21E8FC0117
:10049C002083CE0185579F4F22E4FC012083CE019F
:1004AC0084579F4FFC011082CE0183579F4FFC0154
:1004BC001082CE0183579F4FFC011082CE018257D0
:1004CC009F4F2FEFFC012083CE0181579F4F21E8D6
:1004DC00FC012083CE0180579F4F21E8FC01208333
:1004EC00CE018F569F4F22E4FC012083CE018E5605
:1004FC009F4F2CE3FC012083CE018D569F4FFC01B6
:10050C001082CE018C569F4FFC011082CE018B566F
:10051C009F4FFC011082CE018B569F4FFC01108225
:10052C00CE018A569F4F2FEFFC012083CE018956B6
:10053C009F4F21E9FC012083CE0188569F4F21E972
:10054C00FC012083CE0187569F4F21E9FC012083BB
:10055C00CE0186569F4F21E8FC012083CE018556A3
:10056C009F4FFC011082CE0184569F4FFC011082DC
:10057C00CE0183569F4FFC011082CE0183569F4FB4
:10058C00FC011082CE0182569F4F2FEFFC0120837D
:10059C00CE0181569F4F20E9FC012083CE0180566D
:1005AC009F4F20E9FC012083CE018F559F4F20E9FE
:1005BC00FC012083CE018E559F4F20E8FC01208347
:1005CC00CE018D559F4FFC011082CE018C559F4F53
:1005DC00FC011082CE018B559F4FFC011082CE0185
:1005EC008B559F4F28E3FC012083CE018A559F4FEA
:1005FC0024E4FC012083CE0189559F4F22E4FC01A9
:10060C002083CE0188559F4F21E2FC012083CE012F
:10061C0087559F4F21E2FC012083CE0186559F4FC9
:10062C0022E4FC012083CE0185559F4F24E4FC017C
:10063C002083CE0184559F4F28E3FC012083CE01FB
:10064C0083559F4FFC011082CE0183559F4F2CE3A5
:10065C00FC012083CE0182559F4F22E4FC012083B4
:10066C00CE0181559F4F29EAFC012083CE01805594
:10067C009F4F25E8FC012083CE018F549F4F25E826
:10068C00FC012083CE018E549F4F29EAFC0120836C
:10069C00CE018D549F4F22E4FC012083CE018C545B
:1006AC009F4F2CE3FC012083CE018B549F4FFC0108
:1006BC001082CE018B549F4F2CE3FC012083CE0182
:1006CC008A549F4F22E4FC012083CE0189549F4F12
:1006DC0021E8FC012083CE0188549F4F21EAFC01C4
:1006EC002083CE0187549F4F21E8FC012083CE014B
:1006FC0086549F4F29E9FC012083CE0185549F4FDE
:10070C002AEEFC012083CE0184549F4F2CE0FC0187
:10071C002083CE0183549F4FFC011082CE01835461
:10072C009F4FFC011082CE0182549F4F20E1FC01AF
:10073C002083CE0181549F4F23EDFC012083CE01F9
:10074C0080549F4F2CEFFC012083CE018F539F4F81
:10075C002CEFFC012083CE018E539F4F23EDFC0127
:10076C002083CE018D539F4F20E1FC012083CE01CD
:10077C008C539F4FFC011082CE018B539F4FFC0179
:10078C0010828AE390E02FEFFC01208387E390E056
:10079C002FEFFC0120831C823AC11B8231C11982CC
:1007AC0028C11A821FC18BE390E02A81422F50E0AE
:1007BC0021E030E002C0220F331F4A95E2F7FC0122
:1007CC00208388E390E02C81422F50E02A81222F55
:1007DC0030E0440F551F440F551F440F551FBE01E9
:1007EC006F5F7F4F460F571F240F351F2C5D3F4FF8
:1007FC00F9012081FC01208380E090E0A0E8BFE3B8
:10080C008D839E83AF83B8872BEA3AEA4AEA5EE38C
:10081C006D817E818F8198850E949A06DC01CB01C7
:10082C0089879A87AB87BC8720E030E040E85EE39D
:10083C006D817E818F8198850E949A06DC01CB01A7
:10084C008D879E87AF87B88B20E030E040E85FE370
:10085C0069857A858B859C850E948C0688231CF47F
:10086C0081E0898BB2C020E03FEF4FE757E46D8504
:10087C007E858F8598890E94910618160CF07BC096
:10088C0020E030E04AE754E46D817E818F819885C9
:10089C000E949606DC01CB018A8B9B8BAC8BBD8BAB
:1008AC0020E030E04AE753E46A897B898C899D8992
:1008BC000E949A06DC01CB018E8B9F8BA88FB98F7F
:1008CC0020E030E040E85FE36E897F89888D998D68
:1008DC000E948C0688232CF481E090E09B8F8A8FF9
:1008EC003FC020E03FEF4FE757E46E897F89888D4A
:1008FC00998D0E94910618164CF520E030E040E2EC
:10090C0051E46A897B898C899D890E949A06DC0155
:10091C00CB01BC01CD010E94EB05DC01CB019B8F0F
:10092C008A8F0FC089E190E09D8F8C8F8C8D9D8D6F
:10093C000197F1F79D8F8C8F8A8D9B8D01979B8FE3
:10094C008A8F8A8D9B8D892B69F73FC06E897F8931
:10095C00888D998D0E94EB05DC01CB019B8F8A8FD2
:10096C008A8D9B8D9F8F8E8F8E8D9F8D0197F1F72A
:10097C009F8F8E8F2AC020E030E04FE753E46985CB
:10098C007A858B859C850E9491061816ACF46D8532
:10099C007E858F8598890E94EB05DC01CB0199A39C
:1009AC0088A388A199A19BA38AA38AA19BA1019743
:1009BC00F1F79BA38AA30FC069857A858B859C85EB
:1009CC000E94EB05DC01CB01898B89898CA38CA15E
:1009DC008A95F1F78CA388E390E0FC0110828A8160
:1009EC008F5F8A838A81893008F4DDCE89818F5F9D
:1009FC0089838981813108F4D4CE8B818F5F8B837D
:100A0C008B81813108F4CBCE8C818F5F8C838C8170
:080A1C00843108F4C2CEBFCE04
:100A240010C00E94780658F00E94710640F029F424
:100A34005F3F29F00C94860651110C9480060C94A7
:100A44009E060E943E0668F39923B1F3552391F361
:100A5400951B550BBB27AA2762177307840738F029
:100A64009F5F5F4F220F331F441FAA1FA9F335D086
:100A74000E2E3AF0E0E832D091505040E695001C3A
:100A8400CAF72BD0FE2F29D0660F771F881FBB1FF4
:100A9400261737074807AB07B0E809F0BB0B802DD2
:100AA400BF01FF2793585F4F3AF09E3F510578F0FE
:100AB4000C9486060C9480065F3FE4F3983ED4F3CE
:100AC400869577956795B795F7959F5FC9F7880FD2
:100AD400911D9695879597F90895E1E0660F771F24
:100AE400881FBB1F621773078407BA0720F0621BB5
:0E0AF400730B840BBA0BEE1F88F7E095089584
:100B02000FC00E94710638F00E94780620F09523EB
:100B120011F00C9486060C949E0611240C94800607
:100B22000E943E0670F3959FC1F3950F50E0551F4A
:100B3200629FF001729FBB27F00DB11D639FAA2730
:100B4200F00DB11DAA1F649F6627B00DA11D661F7F
:100B5200829F2227B00DA11D621F739FB00DA11DA0
:100B6200621F839FA00D611D221F749F3327A00D5A
:100B7200611D231F849F600D211D822F762F6A2FF6
:100B820011249F5750409AF0F1F088234AF0EE0F5B
:100B9200FF1FBB1F661F771F881F91505040A9F788
:100BA2009E3F510580F00C9486060C9480065F3FB0
:100BB200E4F3983ED4F3869577956795B795F795C4
:100BC200E7959F5FC1F7FE2B880F911D969587953C
:040BD20097F90895F2
:100BD6000E94460688F09F5798F0B92F9927B7517B
:100BE600B0F0E1F0660F771F881F991F1AF0BA95CB
:100BF600C9F714C0B13091F00E947F06B1E00895A4
:100C06000C947F06672F782F8827B85F39F0B93F95
:100C1600CCF3869577956795B395D9F73EF490957D
:0E0C26008095709561957F4F8F4F9F4F089579
:100C3400990F0008550FAA0BE0E8FEEF16161706E9
:100C4400E807F907C0F012161306E407F50798F051
:100C5400621B730B840B950B39F40A2661F0232B6A
:100C6400242B252B21F408950A2609F4A140A695E6
:080C74008FEF811D811D089521
:100C7C0057FD9058440F551F59F05F3F71F0479541
:100C8C00880F97FB991F61F09F3F79F08795089526
:100C9C00121613061406551FF2CF4695F1DF08C045
:100CAC00161617061806991FF1CF86957105610562
:040CBC0008940895FB
:100CC000092E0394000C11F4882352F0BB0F40F45A
:100CD000BF2B11F460FF04C06F5F7F4F8F4F9F4F9A
:020CE000089575
:0E0CE20000240A94161617061806090608952F
:0E0CF00000240A941216130614060506089531
:0E0CFE00E894BB2766277727CB0197F9089566
:0C0D0C0097F99F6780E870E060E00895B0
:0A0D18000E941A0608F481E0089515
:0A0D22000E941A0608F48FEF0895EE
:080D2C000E9412050C94600600
:080D34000E9481050C94600689
:060D3C009FEF80EC08951A
:040D42000C9400000D
:00000001FF
