:100000000C942A000C9466000C9466000C94660014
:100010000C9466000C9466000C9466000C946600C8
:100020000C9466000C9466000C9466000C946600B8
:100030000C9466000C9466000C9466000C946600A8
:100040000C9466000C9466000C9466000C94660098
:100050000C94660011241FBECFE5D4E0DEBFCDBFF7
:0C0060000E943F000C943400F894FFCF85
:10006C003F065B4F666D7D077F67777C395E7971E4
:01007C008003
:10007E008FEF8ABB8FE38BBB2FE936E881E02150EF
:10008E0030408040E1F700C0000021E0822F90E078
:10009E00A0E084599F4FAF4FFC018491A7FD808152
:1000AE008BBB9FE936E881E0915030408040E1F70C
:0E00BE0000C000002F5F213149F720E0E7CF9E
:0400CC000C94000090
:00000001FF
