:100000000C942A000C9448000C9448000C9448006E
:100010000C9448000C9448000C9448000C94480040
:100020000C9448000C9448000C9448000C94480030
:100030000C9448000C9448000C9448000C94480020
:100040000C9448000C9448000C9448000C94480010
:100050000C94480011241FBECFE5D4E0DEBFCDBF15
:0C0060000E9436000C943400F894FFCF8E
:10006C008FEF8ABB1BBA80E08F5F8BBB2FE53AEE1C
:10007C0090E0215030409040E1F700C000008F3FED
:04008C0099F7FFCF12
:040090000C940000CC
:00000001FF
